{
  "contractName": "FoodTrack",
  "abi": [
    {
      "anonymous": false,
      "inputs": [
        {
          "indexed": true,
          "internalType": "uint256",
          "name": "_productId",
          "type": "uint256"
        },
        {
          "indexed": false,
          "internalType": "address",
          "name": "owner",
          "type": "address"
        },
        {
          "indexed": false,
          "internalType": "string",
          "name": "name",
          "type": "string"
        },
        {
          "indexed": false,
          "internalType": "string",
          "name": "date",
          "type": "string"
        },
        {
          "indexed": false,
          "internalType": "string",
          "name": "time",
          "type": "string"
        },
        {
          "indexed": false,
          "internalType": "string",
          "name": "productinfo",
          "type": "string"
        }
      ],
      "name": "addedProduct",
      "type": "event"
    },
    {
      "constant": true,
      "inputs": [],
      "name": "productCount",
      "outputs": [
        {
          "internalType": "uint256",
          "name": "",
          "type": "uint256"
        }
      ],
      "payable": false,
      "stateMutability": "view",
      "type": "function"
    },
    {
      "constant": true,
      "inputs": [
        {
          "internalType": "uint256",
          "name": "",
          "type": "uint256"
        }
      ],
      "name": "products",
      "outputs": [
        {
          "internalType": "uint256",
          "name": "id",
          "type": "uint256"
        },
        {
          "internalType": "string",
          "name": "name",
          "type": "string"
        },
        {
          "internalType": "string",
          "name": "date",
          "type": "string"
        },
        {
          "internalType": "string",
          "name": "time",
          "type": "string"
        },
        {
          "internalType": "string",
          "name": "productinfo",
          "type": "string"
        }
      ],
      "payable": false,
      "stateMutability": "view",
      "type": "function"
    },
    {
      "constant": true,
      "inputs": [
        {
          "internalType": "address",
          "name": "",
          "type": "address"
        }
      ],
      "name": "roles",
      "outputs": [
        {
          "internalType": "string",
          "name": "",
          "type": "string"
        }
      ],
      "payable": false,
      "stateMutability": "view",
      "type": "function"
    },
    {
      "constant": false,
      "inputs": [
        {
          "internalType": "string",
          "name": "_role",
          "type": "string"
        }
      ],
      "name": "registerRoles",
      "outputs": [],
      "payable": false,
      "stateMutability": "nonpayable",
      "type": "function"
    },
    {
      "constant": false,
      "inputs": [
        {
          "internalType": "string",
          "name": "_name",
          "type": "string"
        },
        {
          "internalType": "string",
          "name": "_date",
          "type": "string"
        },
        {
          "internalType": "string",
          "name": "_time",
          "type": "string"
        },
        {
          "internalType": "string",
          "name": "_productinfo",
          "type": "string"
        }
      ],
      "name": "addProduct",
      "outputs": [],
      "payable": false,
      "stateMutability": "nonpayable",
      "type": "function"
    },
    {
      "constant": false,
      "inputs": [
        {
          "internalType": "uint256",
          "name": "_id",
          "type": "uint256"
        },
        {
          "internalType": "string",
          "name": "_date",
          "type": "string"
        },
        {
          "internalType": "string",
          "name": "_time",
          "type": "string"
        },
        {
          "internalType": "string",
          "name": "_productinfo",
          "type": "string"
        }
      ],
      "name": "updateProduct",
      "outputs": [],
      "payable": false,
      "stateMutability": "nonpayable",
      "type": "function"
    }
  ],
  "bytecode": "0x608060405234801561001057600080fd5b506113dc806100206000396000f3fe608060405234801561001057600080fd5b50600436106100625760003560e01c80633f22dab3146100675780637acc0b201461025a57806395372f091461044c5780639937464214610507578063e0f6ef87146105c4578063fde74e81146105e2575b600080fd5b6102586004803603608081101561007d57600080fd5b8101908080359060200190929190803590602001906401000000008111156100a457600080fd5b8201836020820111156100b657600080fd5b803590602001918460018302840111640100000000831117156100d857600080fd5b91908080601f016020809104026020016040519081016040528093929190818152602001838380828437600081840152601f19601f8201169050808301925050505050505091929192908035906020019064010000000081111561013b57600080fd5b82018360208201111561014d57600080fd5b8035906020019184600183028401116401000000008311171561016f57600080fd5b91908080601f016020809104026020016040519081016040528093929190818152602001838380828437600081840152601f19601f820116905080830192505050505050509192919290803590602001906401000000008111156101d257600080fd5b8201836020820111156101e457600080fd5b8035906020019184600183028401116401000000008311171561020657600080fd5b91908080601f016020809104026020016040519081016040528093929190818152602001838380828437600081840152601f19601f820116905080830192505050505050509192919290505050610862565b005b6102866004803603602081101561027057600080fd5b8101908080359060200190929190505050610bef565b6040518086815260200180602001806020018060200180602001858103855289818151815260200191508051906020019080838360005b838110156102d85780820151818401526020810190506102bd565b50505050905090810190601f1680156103055780820380516001836020036101000a031916815260200191505b50858103845288818151815260200191508051906020019080838360005b8381101561033e578082015181840152602081019050610323565b50505050905090810190601f16801561036b5780820380516001836020036101000a031916815260200191505b50858103835287818151815260200191508051906020019080838360005b838110156103a4578082015181840152602081019050610389565b50505050905090810190601f1680156103d15780820380516001836020036101000a031916815260200191505b50858103825286818151815260200191508051906020019080838360005b8381101561040a5780820151818401526020810190506103ef565b50505050905090810190601f1680156104375780820380516001836020036101000a031916815260200191505b50995050505050505050505060405180910390f35b6105056004803603602081101561046257600080fd5b810190808035906020019064010000000081111561047f57600080fd5b82018360208201111561049157600080fd5b803590602001918460018302840111640100000000831117156104b357600080fd5b91908080601f016020809104026020016040519081016040528093929190818152602001838380828437600081840152601f19601f820116905080830192505050505050509192919290505050610e85565b005b6105496004803603602081101561051d57600080fd5b81019080803573ffffffffffffffffffffffffffffffffffffffff169060200190929190505050610edb565b6040518080602001828103825283818151815260200191508051906020019080838360005b8381101561058957808201518184015260208101905061056e565b50505050905090810190601f1680156105b65780820380516001836020036101000a031916815260200191505b509250505060405180910390f35b6105cc610f8b565b6040518082815260200191505060405180910390f35b610860600480360360808110156105f857600080fd5b810190808035906020019064010000000081111561061557600080fd5b82018360208201111561062757600080fd5b8035906020019184600183028401116401000000008311171561064957600080fd5b91908080601f016020809104026020016040519081016040528093929190818152602001838380828437600081840152601f19601f820116905080830192505050505050509192919290803590602001906401000000008111156106ac57600080fd5b8201836020820111156106be57600080fd5b803590602001918460018302840111640100000000831117156106e057600080fd5b91908080601f016020809104026020016040519081016040528093929190818152602001838380828437600081840152601f19601f8201169050808301925050505050505091929192908035906020019064010000000081111561074357600080fd5b82018360208201111561075557600080fd5b8035906020019184600183028401116401000000008311171561077757600080fd5b91908080601f016020809104026020016040519081016040528093929190818152602001838380828437600081840152601f19601f820116905080830192505050505050509192919290803590602001906401000000008111156107da57600080fd5b8201836020820111156107ec57600080fd5b8035906020019184600183028401116401000000008311171561080e57600080fd5b91908080601f016020809104026020016040519081016040528093929190818152602001838380828437600081840152601f19601f820116905080830192505050505050509192919290505050610f91565b005b6060600160008681526020019081526020016000206001018054600181600116156101000203166002900480601f01602080910402602001604051908101604052809291908181526020018280546001816001161561010002031660029004801561090e5780601f106108e35761010080835404028352916020019161090e565b820191906000526020600020905b8154815290600101906020018083116108f157829003601f168201915b505050505090506040518060a001604052808681526020018281526020018581526020018481526020018381525060016000878152602001908152602001600020600082015181600001556020820151816001019080519060200190610975929190611282565b506040820151816002019080519060200190610992929190611282565b5060608201518160030190805190602001906109af929190611282565b5060808201518160040190805190602001906109cc929190611282565b50905050847fd6458cec777645216af2c829043b98579ee21d1b2467827cc10a5bc1c04532a03383878787604051808673ffffffffffffffffffffffffffffffffffffffff1673ffffffffffffffffffffffffffffffffffffffff16815260200180602001806020018060200180602001858103855289818151815260200191508051906020019080838360005b83811015610a75578082015181840152602081019050610a5a565b50505050905090810190601f168015610aa25780820380516001836020036101000a031916815260200191505b50858103845288818151815260200191508051906020019080838360005b83811015610adb578082015181840152602081019050610ac0565b50505050905090810190601f168015610b085780820380516001836020036101000a031916815260200191505b50858103835287818151815260200191508051906020019080838360005b83811015610b41578082015181840152602081019050610b26565b50505050905090810190601f168015610b6e5780820380516001836020036101000a031916815260200191505b50858103825286818151815260200191508051906020019080838360005b83811015610ba7578082015181840152602081019050610b8c565b50505050905090810190601f168015610bd45780820380516001836020036101000a031916815260200191505b50995050505050505050505060405180910390a25050505050565b6001602052806000526040600020600091509050806000015490806001018054600181600116156101000203166002900480601f016020809104026020016040519081016040528092919081815260200182805460018160011615610100020316600290048015610ca15780601f10610c7657610100808354040283529160200191610ca1565b820191906000526020600020905b815481529060010190602001808311610c8457829003601f168201915b505050505090806002018054600181600116156101000203166002900480601f016020809104026020016040519081016040528092919081815260200182805460018160011615610100020316600290048015610d3f5780601f10610d1457610100808354040283529160200191610d3f565b820191906000526020600020905b815481529060010190602001808311610d2257829003601f168201915b505050505090806003018054600181600116156101000203166002900480601f016020809104026020016040519081016040528092919081815260200182805460018160011615610100020316600290048015610ddd5780601f10610db257610100808354040283529160200191610ddd565b820191906000526020600020905b815481529060010190602001808311610dc057829003601f168201915b505050505090806004018054600181600116156101000203166002900480601f016020809104026020016040519081016040528092919081815260200182805460018160011615610100020316600290048015610e7b5780601f10610e5057610100808354040283529160200191610e7b565b820191906000526020600020905b815481529060010190602001808311610e5e57829003601f168201915b5050505050905085565b806000803373ffffffffffffffffffffffffffffffffffffffff1673ffffffffffffffffffffffffffffffffffffffff1681526020019081526020016000209080519060200190610ed7929190611302565b5050565b60006020528060005260406000206000915090508054600181600116156101000203166002900480601f016020809104026020016040519081016040528092919081815260200182805460018160011615610100020316600290048015610f835780601f10610f5857610100808354040283529160200191610f83565b820191906000526020600020905b815481529060010190602001808311610f6657829003601f168201915b505050505081565b60025481565b6002600081548092919060010191905055506040518060a00160405280600254815260200185815260200184815260200183815260200182815250600160006002548152602001908152602001600020600082015181600001556020820151816001019080519060200190611007929190611282565b506040820151816002019080519060200190611024929190611282565b506060820151816003019080519060200190611041929190611282565b50608082015181600401908051906020019061105e929190611282565b509050506002547fd6458cec777645216af2c829043b98579ee21d1b2467827cc10a5bc1c04532a03386868686604051808673ffffffffffffffffffffffffffffffffffffffff1673ffffffffffffffffffffffffffffffffffffffff16815260200180602001806020018060200180602001858103855289818151815260200191508051906020019080838360005b838110156111095780820151818401526020810190506110ee565b50505050905090810190601f1680156111365780820380516001836020036101000a031916815260200191505b50858103845288818151815260200191508051906020019080838360005b8381101561116f578082015181840152602081019050611154565b50505050905090810190601f16801561119c5780820380516001836020036101000a031916815260200191505b50858103835287818151815260200191508051906020019080838360005b838110156111d55780820151818401526020810190506111ba565b50505050905090810190601f1680156112025780820380516001836020036101000a031916815260200191505b50858103825286818151815260200191508051906020019080838360005b8381101561123b578082015181840152602081019050611220565b50505050905090810190601f1680156112685780820380516001836020036101000a031916815260200191505b50995050505050505050505060405180910390a250505050565b828054600181600116156101000203166002900490600052602060002090601f016020900481019282601f106112c357805160ff19168380011785556112f1565b828001600101855582156112f1579182015b828111156112f05782518255916020019190600101906112d5565b5b5090506112fe9190611382565b5090565b828054600181600116156101000203166002900490600052602060002090601f016020900481019282601f1061134357805160ff1916838001178555611371565b82800160010185558215611371579182015b82811115611370578251825591602001919060010190611355565b5b50905061137e9190611382565b5090565b6113a491905b808211156113a0576000816000905550600101611388565b5090565b9056fea265627a7a72315820fd67229914965bb36c9ece47f4afac79a001e38cc66b7d2fc88710fcdc68e27264736f6c63430005100032",
  "source": "pragma solidity >=0.4.21 <0.7.0;\n\ncontract FoodTrack {\n    // Model a Product\n    struct Product {\n            uint id;\n            string name;\n            string date;\n            string time;\n            string productinfo;\n    }\n\n    // Store accounts roles\n    mapping(address => string) public roles;\n    // Store Products\n    \n    mapping(uint => Product) public products;\n    \n    uint public productCount;\n\n    // event \n    event addedProduct (\n        uint indexed _productId,\n        address owner,\n        string name,\n        string date,\n        string time,\n        string productinfo\n    );\n\n    function registerRoles (string memory _role) public {\n        //require(roles[msg.sender]!=0);\n        roles[msg.sender] = _role;\n    }\n  \n    function addProduct (string memory _name,string memory _date,string memory _time,string memory _productinfo) public {\n        productCount ++;\n        products[productCount] = Product(productCount, _name,_date,_time,_productinfo);\n        emit addedProduct(productCount,msg.sender,_name,_date,_time,_productinfo);\n    }\n    function updateProduct (uint _id,string memory _date,string memory _time,string memory _productinfo) public {\n        string memory _name=products[_id].name;\n        products[_id] = Product(_id, _name,_date,_time,_productinfo);\n        emit addedProduct(_id,msg.sender,_name,_date,_time,_productinfo);\n    }\n    \n}\n",
  "sourcePath": "F:\\Food Track\\contracts\\FoodTrack.sol",
  "compiler": {
    "name": "solc",
    "version": "0.5.16+commit.9c3226ce.Emscripten.clang"
  },
  "schemaVersion": "3.0.23",
  "updatedAt": "2020-06-27T05:59:13.338Z",
  "networkType": "ethereum",
  "devdoc": {
    "methods": {}
  },
  "userdoc": {
    "methods": {}
  }
}